{
  "_format": "hh-sol-artifact-1",
  "contractName": "POAP",
  "sourceName": "contracts/POAP.sol",
  "abi": [
    {
      "inputs": [],
      "stateMutability": "nonpayable",
      "type": "constructor"
    },
    {
      "inputs": [
        {
          "internalType": "address",
          "name": "sender",
          "type": "address"
        },
        {
          "internalType": "uint256",
          "name": "tokenId",
          "type": "uint256"
        },
        {
          "internalType": "address",
          "name": "owner",
          "type": "address"
        }
      ],
      "name": "ERC721IncorrectOwner",
      "type": "error"
    },
    {
      "inputs": [
        {
          "internalType": "address",
          "name": "operator",
          "type": "address"
        },
        {
          "internalType": "uint256",
          "name": "tokenId",
          "type": "uint256"
        }
      ],
      "name": "ERC721InsufficientApproval",
      "type": "error"
    },
    {
      "inputs": [
        {
          "internalType": "address",
          "name": "approver",
          "type": "address"
        }
      ],
      "name": "ERC721InvalidApprover",
      "type": "error"
    },
    {
      "inputs": [
        {
          "internalType": "address",
          "name": "operator",
          "type": "address"
        }
      ],
      "name": "ERC721InvalidOperator",
      "type": "error"
    },
    {
      "inputs": [
        {
          "internalType": "address",
          "name": "owner",
          "type": "address"
        }
      ],
      "name": "ERC721InvalidOwner",
      "type": "error"
    },
    {
      "inputs": [
        {
          "internalType": "address",
          "name": "receiver",
          "type": "address"
        }
      ],
      "name": "ERC721InvalidReceiver",
      "type": "error"
    },
    {
      "inputs": [
        {
          "internalType": "address",
          "name": "sender",
          "type": "address"
        }
      ],
      "name": "ERC721InvalidSender",
      "type": "error"
    },
    {
      "inputs": [
        {
          "internalType": "uint256",
          "name": "tokenId",
          "type": "uint256"
        }
      ],
      "name": "ERC721NonexistentToken",
      "type": "error"
    },
    {
      "inputs": [
        {
          "internalType": "address",
          "name": "owner",
          "type": "address"
        }
      ],
      "name": "OwnableInvalidOwner",
      "type": "error"
    },
    {
      "inputs": [
        {
          "internalType": "address",
          "name": "account",
          "type": "address"
        }
      ],
      "name": "OwnableUnauthorizedAccount",
      "type": "error"
    },
    {
      "anonymous": false,
      "inputs": [
        {
          "indexed": true,
          "internalType": "address",
          "name": "owner",
          "type": "address"
        },
        {
          "indexed": true,
          "internalType": "address",
          "name": "approved",
          "type": "address"
        },
        {
          "indexed": true,
          "internalType": "uint256",
          "name": "tokenId",
          "type": "uint256"
        }
      ],
      "name": "Approval",
      "type": "event"
    },
    {
      "anonymous": false,
      "inputs": [
        {
          "indexed": true,
          "internalType": "address",
          "name": "owner",
          "type": "address"
        },
        {
          "indexed": true,
          "internalType": "address",
          "name": "operator",
          "type": "address"
        },
        {
          "indexed": false,
          "internalType": "bool",
          "name": "approved",
          "type": "bool"
        }
      ],
      "name": "ApprovalForAll",
      "type": "event"
    },
    {
      "anonymous": false,
      "inputs": [
        {
          "indexed": false,
          "internalType": "uint256",
          "name": "_fromTokenId",
          "type": "uint256"
        },
        {
          "indexed": false,
          "internalType": "uint256",
          "name": "_toTokenId",
          "type": "uint256"
        }
      ],
      "name": "BatchMetadataUpdate",
      "type": "event"
    },
    {
      "anonymous": false,
      "inputs": [
        {
          "indexed": false,
          "internalType": "uint256",
          "name": "_tokenId",
          "type": "uint256"
        }
      ],
      "name": "MetadataUpdate",
      "type": "event"
    },
    {
      "anonymous": false,
      "inputs": [
        {
          "indexed": true,
          "internalType": "address",
          "name": "previousOwner",
          "type": "address"
        },
        {
          "indexed": true,
          "internalType": "address",
          "name": "newOwner",
          "type": "address"
        }
      ],
      "name": "OwnershipTransferred",
      "type": "event"
    },
    {
      "anonymous": false,
      "inputs": [
        {
          "indexed": true,
          "internalType": "address",
          "name": "from",
          "type": "address"
        },
        {
          "indexed": true,
          "internalType": "address",
          "name": "to",
          "type": "address"
        },
        {
          "indexed": true,
          "internalType": "uint256",
          "name": "tokenId",
          "type": "uint256"
        }
      ],
      "name": "Transfer",
      "type": "event"
    },
    {
      "inputs": [
        {
          "internalType": "address",
          "name": "to",
          "type": "address"
        },
        {
          "internalType": "uint256",
          "name": "tokenId",
          "type": "uint256"
        }
      ],
      "name": "approve",
      "outputs": [],
      "stateMutability": "nonpayable",
      "type": "function"
    },
    {
      "inputs": [
        {
          "internalType": "address",
          "name": "owner",
          "type": "address"
        }
      ],
      "name": "balanceOf",
      "outputs": [
        {
          "internalType": "uint256",
          "name": "",
          "type": "uint256"
        }
      ],
      "stateMutability": "view",
      "type": "function"
    },
    {
      "inputs": [
        {
          "internalType": "uint256",
          "name": "tokenId",
          "type": "uint256"
        }
      ],
      "name": "getApproved",
      "outputs": [
        {
          "internalType": "address",
          "name": "",
          "type": "address"
        }
      ],
      "stateMutability": "view",
      "type": "function"
    },
    {
      "inputs": [
        {
          "internalType": "address",
          "name": "",
          "type": "address"
        }
      ],
      "name": "hasClaimed",
      "outputs": [
        {
          "internalType": "bool",
          "name": "",
          "type": "bool"
        }
      ],
      "stateMutability": "view",
      "type": "function"
    },
    {
      "inputs": [
        {
          "internalType": "address",
          "name": "owner",
          "type": "address"
        },
        {
          "internalType": "address",
          "name": "operator",
          "type": "address"
        }
      ],
      "name": "isApprovedForAll",
      "outputs": [
        {
          "internalType": "bool",
          "name": "",
          "type": "bool"
        }
      ],
      "stateMutability": "view",
      "type": "function"
    },
    {
      "inputs": [
        {
          "internalType": "address",
          "name": "attendee",
          "type": "address"
        },
        {
          "internalType": "string",
          "name": "tokenURI_",
          "type": "string"
        }
      ],
      "name": "mintPOAP",
      "outputs": [],
      "stateMutability": "nonpayable",
      "type": "function"
    },
    {
      "inputs": [],
      "name": "name",
      "outputs": [
        {
          "internalType": "string",
          "name": "",
          "type": "string"
        }
      ],
      "stateMutability": "view",
      "type": "function"
    },
    {
      "inputs": [],
      "name": "nextTokenId",
      "outputs": [
        {
          "internalType": "uint256",
          "name": "",
          "type": "uint256"
        }
      ],
      "stateMutability": "view",
      "type": "function"
    },
    {
      "inputs": [],
      "name": "owner",
      "outputs": [
        {
          "internalType": "address",
          "name": "",
          "type": "address"
        }
      ],
      "stateMutability": "view",
      "type": "function"
    },
    {
      "inputs": [
        {
          "internalType": "uint256",
          "name": "tokenId",
          "type": "uint256"
        }
      ],
      "name": "ownerOf",
      "outputs": [
        {
          "internalType": "address",
          "name": "",
          "type": "address"
        }
      ],
      "stateMutability": "view",
      "type": "function"
    },
    {
      "inputs": [],
      "name": "renounceOwnership",
      "outputs": [],
      "stateMutability": "nonpayable",
      "type": "function"
    },
    {
      "inputs": [
        {
          "internalType": "address",
          "name": "from",
          "type": "address"
        },
        {
          "internalType": "address",
          "name": "to",
          "type": "address"
        },
        {
          "internalType": "uint256",
          "name": "tokenId",
          "type": "uint256"
        }
      ],
      "name": "safeTransferFrom",
      "outputs": [],
      "stateMutability": "nonpayable",
      "type": "function"
    },
    {
      "inputs": [
        {
          "internalType": "address",
          "name": "from",
          "type": "address"
        },
        {
          "internalType": "address",
          "name": "to",
          "type": "address"
        },
        {
          "internalType": "uint256",
          "name": "tokenId",
          "type": "uint256"
        },
        {
          "internalType": "bytes",
          "name": "data",
          "type": "bytes"
        }
      ],
      "name": "safeTransferFrom",
      "outputs": [],
      "stateMutability": "nonpayable",
      "type": "function"
    },
    {
      "inputs": [
        {
          "internalType": "address",
          "name": "operator",
          "type": "address"
        },
        {
          "internalType": "bool",
          "name": "approved",
          "type": "bool"
        }
      ],
      "name": "setApprovalForAll",
      "outputs": [],
      "stateMutability": "nonpayable",
      "type": "function"
    },
    {
      "inputs": [
        {
          "internalType": "bytes4",
          "name": "interfaceId",
          "type": "bytes4"
        }
      ],
      "name": "supportsInterface",
      "outputs": [
        {
          "internalType": "bool",
          "name": "",
          "type": "bool"
        }
      ],
      "stateMutability": "view",
      "type": "function"
    },
    {
      "inputs": [],
      "name": "symbol",
      "outputs": [
        {
          "internalType": "string",
          "name": "",
          "type": "string"
        }
      ],
      "stateMutability": "view",
      "type": "function"
    },
    {
      "inputs": [
        {
          "internalType": "uint256",
          "name": "tokenId",
          "type": "uint256"
        }
      ],
      "name": "tokenURI",
      "outputs": [
        {
          "internalType": "string",
          "name": "",
          "type": "string"
        }
      ],
      "stateMutability": "view",
      "type": "function"
    },
    {
      "inputs": [
        {
          "internalType": "address",
          "name": "from",
          "type": "address"
        },
        {
          "internalType": "address",
          "name": "to",
          "type": "address"
        },
        {
          "internalType": "uint256",
          "name": "tokenId",
          "type": "uint256"
        }
      ],
      "name": "transferFrom",
      "outputs": [],
      "stateMutability": "nonpayable",
      "type": "function"
    },
    {
      "inputs": [
        {
          "internalType": "address",
          "name": "newOwner",
          "type": "address"
        }
      ],
      "name": "transferOwnership",
      "outputs": [],
      "stateMutability": "nonpayable",
      "type": "function"
    }
  ],
  "bytecode": "0x60806040523480156200001157600080fd5b50336040518060400160405280600981526020016804576656e74504f41560bc1b81525060405180604001604052806005815260200164045504f41560dc1b8152508160009081620000649190620001ae565b506001620000738282620001ae565b5050506001600160a01b038116620000a557604051631e4fbdf760e01b81526000600482015260240160405180910390fd5b620000b081620000b7565b506200027a565b600780546001600160a01b038381166001600160a01b0319831681179093556040519116919082907f8be0079c531659141344cd1fd0a4f28419497f9722a3daafe3b4186f6b6457e090600090a35050565b634e487b7160e01b600052604160045260246000fd5b600181811c908216806200013457607f821691505b6020821081036200015557634e487b7160e01b600052602260045260246000fd5b50919050565b601f821115620001a957600081815260208120601f850160051c81016020861015620001845750805b601f850160051c820191505b81811015620001a55782815560010162000190565b5050505b505050565b81516001600160401b03811115620001ca57620001ca62000109565b620001e281620001db84546200011f565b846200015b565b602080601f8311600181146200021a5760008415620002015750858301515b600019600386901b1c1916600185901b178555620001a5565b600085815260208120601f198616915b828110156200024b578886015182559484019460019091019084016200022a565b50858210156200026a5787850151600019600388901b60f8161c191681555b5050505050600190811b01905550565b6114db806200028a6000396000f3fe608060405234801561001057600080fd5b50600436106101215760003560e01c806373b2e80e116100ad578063a22cb46511610071578063a22cb4651461025d578063b88d4fde14610270578063c87b56dd14610283578063e985e9c514610296578063f2fde38b146102a957600080fd5b806373b2e80e1461020557806375794a3c146102285780638c19b4d8146102315780638da5cb5b1461024457806395d89b411461025557600080fd5b806323b872dd116100f457806323b872dd146101a357806342842e0e146101b65780636352211e146101c957806370a08231146101dc578063715018a6146101fd57600080fd5b806301ffc9a71461012657806306fdde031461014e578063081812fc14610163578063095ea7b31461018e575b600080fd5b610139610134366004610fac565b6102bc565b60405190151581526020015b60405180910390f35b6101566102e7565b6040516101459190611019565b61017661017136600461102c565b610379565b6040516001600160a01b039091168152602001610145565b6101a161019c366004611061565b6103a2565b005b6101a16101b136600461108b565b6103b1565b6101a16101c436600461108b565b610441565b6101766101d736600461102c565b610461565b6101ef6101ea3660046110c7565b61046c565b604051908152602001610145565b6101a16104b4565b6101396102133660046110c7565b60096020526000908152604090205460ff1681565b6101ef60085481565b6101a161023f36600461116e565b6104c8565b6007546001600160a01b0316610176565b61015661057b565b6101a161026b3660046111d0565b61058a565b6101a161027e36600461120c565b610595565b61015661029136600461102c565b6105ad565b6101396102a4366004611288565b6106be565b6101a16102b73660046110c7565b6106ec565b60006001600160e01b03198216632483248360e11b14806102e157506102e18261072a565b92915050565b6060600080546102f6906112bb565b80601f0160208091040260200160405190810160405280929190818152602001828054610322906112bb565b801561036f5780601f106103445761010080835404028352916020019161036f565b820191906000526020600020905b81548152906001019060200180831161035257829003601f168201915b5050505050905090565b60006103848261077a565b506000828152600460205260409020546001600160a01b03166102e1565b6103ad8282336107b3565b5050565b6001600160a01b0382166103e057604051633250574960e11b8152600060048201526024015b60405180910390fd5b60006103ed8383336107c0565b9050836001600160a01b0316816001600160a01b03161461043b576040516364283d7b60e01b81526001600160a01b03808616600483015260248201849052821660448201526064016103d7565b50505050565b61045c83838360405180602001604052806000815250610595565b505050565b60006102e18261077a565b60006001600160a01b038216610498576040516322718ad960e21b8152600060048201526024016103d7565b506001600160a01b031660009081526003602052604090205490565b6104bc6108b9565b6104c660006108e6565b565b6104d06108b9565b6001600160a01b03821660009081526009602052604090205460ff161561052b5760405162461bcd60e51b815260206004820152600f60248201526e105b1c9958591e4818db185a5b5959608a1b60448201526064016103d7565b6008546105388382610938565b6105428183610952565b6001600160a01b0383166000908152600960205260409020805460ff191660019081179091556105739082906112f5565b600855505050565b6060600180546102f6906112bb565b6103ad3383836109a2565b6105a08484846103b1565b61043b3385858585610a41565b60606105b88261077a565b50600082815260066020526040812080546105d2906112bb565b80601f01602080910402602001604051908101604052809291908181526020018280546105fe906112bb565b801561064b5780601f106106205761010080835404028352916020019161064b565b820191906000526020600020905b81548152906001019060200180831161062e57829003601f168201915b50505050509050600061066960408051602081019091526000815290565b9050805160000361067b575092915050565b8151156106ad578082604051602001610695929190611316565b60405160208183030381529060405292505050919050565b6106b684610b6c565b949350505050565b6001600160a01b03918216600090815260056020908152604080832093909416825291909152205460ff1690565b6106f46108b9565b6001600160a01b03811661071e57604051631e4fbdf760e01b8152600060048201526024016103d7565b610727816108e6565b50565b60006001600160e01b031982166380ac58cd60e01b148061075b57506001600160e01b03198216635b5e139f60e01b145b806102e157506301ffc9a760e01b6001600160e01b03198316146102e1565b6000818152600260205260408120546001600160a01b0316806102e157604051637e27328960e01b8152600481018490526024016103d7565b61045c8383836001610be1565b6000828152600260205260408120546001600160a01b03908116908316156107ed576107ed818486610ce7565b6001600160a01b0381161561082b5761080a600085600080610be1565b6001600160a01b038116600090815260036020526040902080546000190190555b6001600160a01b0385161561085a576001600160a01b0385166000908152600360205260409020805460010190555b60008481526002602052604080822080546001600160a01b0319166001600160a01b0389811691821790925591518793918516917fddf252ad1be2c89b69c2b068fc378daa952ba7f163c4a11628f55a4df523b3ef91a4949350505050565b6007546001600160a01b031633146104c65760405163118cdaa760e01b81523360048201526024016103d7565b600780546001600160a01b038381166001600160a01b0319831681179093556040519116919082907f8be0079c531659141344cd1fd0a4f28419497f9722a3daafe3b4186f6b6457e090600090a35050565b6103ad828260405180602001604052806000815250610d4b565b600082815260066020526040902061096a828261138b565b506040518281527ff8e1a15aba9398e019f0b49df1a4fde98ee17ae345cb5f6b5e2c27f5033e8ce79060200160405180910390a15050565b6001600160a01b0382166109d457604051630b61174360e31b81526001600160a01b03831660048201526024016103d7565b6001600160a01b03838116600081815260056020908152604080832094871680845294825291829020805460ff191686151590811790915591519182527f17307eab39ab6107e8899845ad3d59bd9653f200f220920489ca2b5937696c31910160405180910390a3505050565b6001600160a01b0383163b15610b6557604051630a85bd0160e11b81526001600160a01b0384169063150b7a0290610a8390889088908790879060040161144b565b6020604051808303816000875af1925050508015610abe575060408051601f3d908101601f19168201909252610abb91810190611488565b60015b610b27573d808015610aec576040519150601f19603f3d011682016040523d82523d6000602084013e610af1565b606091505b508051600003610b1f57604051633250574960e11b81526001600160a01b03851660048201526024016103d7565b805160208201fd5b6001600160e01b03198116630a85bd0160e11b14610b6357604051633250574960e11b81526001600160a01b03851660048201526024016103d7565b505b5050505050565b6060610b778261077a565b506000610b8f60408051602081019091526000815290565b90506000815111610baf5760405180602001604052806000815250610bda565b80610bb984610d63565b604051602001610bca929190611316565b6040516020818303038152906040525b9392505050565b8080610bf557506001600160a01b03821615155b15610cb7576000610c058461077a565b90506001600160a01b03831615801590610c315750826001600160a01b0316816001600160a01b031614155b8015610c445750610c4281846106be565b155b15610c6d5760405163a9fbf51f60e01b81526001600160a01b03841660048201526024016103d7565b8115610cb55783856001600160a01b0316826001600160a01b03167f8c5be1e5ebec7d5bd14f71427d1e84f3dd0314c0f7b2291e5b200ac8c7c3b92560405160405180910390a45b505b5050600090815260046020526040902080546001600160a01b0319166001600160a01b0392909216919091179055565b610cf2838383610df6565b61045c576001600160a01b038316610d2057604051637e27328960e01b8152600481018290526024016103d7565b60405163177e802f60e01b81526001600160a01b0383166004820152602481018290526044016103d7565b610d558383610e59565b61045c336000858585610a41565b60606000610d7083610ebe565b600101905060008167ffffffffffffffff811115610d9057610d906110e2565b6040519080825280601f01601f191660200182016040528015610dba576020820181803683370190505b5090508181016020015b600019016f181899199a1a9b1b9c1cb0b131b232b360811b600a86061a8153600a8504945084610dc457509392505050565b60006001600160a01b038316158015906106b65750826001600160a01b0316846001600160a01b03161480610e305750610e3084846106be565b806106b65750506000908152600460205260409020546001600160a01b03908116911614919050565b6001600160a01b038216610e8357604051633250574960e11b8152600060048201526024016103d7565b6000610e91838360006107c0565b90506001600160a01b0381161561045c576040516339e3563760e11b8152600060048201526024016103d7565b60008072184f03e93ff9f4daa797ed6e38ed64bf6a1f0160401b8310610efd5772184f03e93ff9f4daa797ed6e38ed64bf6a1f0160401b830492506040015b6d04ee2d6d415b85acef81000000008310610f29576d04ee2d6d415b85acef8100000000830492506020015b662386f26fc100008310610f4757662386f26fc10000830492506010015b6305f5e1008310610f5f576305f5e100830492506008015b6127108310610f7357612710830492506004015b60648310610f85576064830492506002015b600a83106102e15760010192915050565b6001600160e01b03198116811461072757600080fd5b600060208284031215610fbe57600080fd5b8135610bda81610f96565b60005b83811015610fe4578181015183820152602001610fcc565b50506000910152565b60008151808452611005816020860160208601610fc9565b601f01601f19169290920160200192915050565b602081526000610bda6020830184610fed565b60006020828403121561103e57600080fd5b5035919050565b80356001600160a01b038116811461105c57600080fd5b919050565b6000806040838503121561107457600080fd5b61107d83611045565b946020939093013593505050565b6000806000606084860312156110a057600080fd5b6110a984611045565b92506110b760208501611045565b9150604084013590509250925092565b6000602082840312156110d957600080fd5b610bda82611045565b634e487b7160e01b600052604160045260246000fd5b600067ffffffffffffffff80841115611113576111136110e2565b604051601f8501601f19908116603f0116810190828211818310171561113b5761113b6110e2565b8160405280935085815286868601111561115457600080fd5b858560208301376000602087830101525050509392505050565b6000806040838503121561118157600080fd5b61118a83611045565b9150602083013567ffffffffffffffff8111156111a657600080fd5b8301601f810185136111b757600080fd5b6111c6858235602084016110f8565b9150509250929050565b600080604083850312156111e357600080fd5b6111ec83611045565b91506020830135801515811461120157600080fd5b809150509250929050565b6000806000806080858703121561122257600080fd5b61122b85611045565b935061123960208601611045565b925060408501359150606085013567ffffffffffffffff81111561125c57600080fd5b8501601f8101871361126d57600080fd5b61127c878235602084016110f8565b91505092959194509250565b6000806040838503121561129b57600080fd5b6112a483611045565b91506112b260208401611045565b90509250929050565b600181811c908216806112cf57607f821691505b6020821081036112ef57634e487b7160e01b600052602260045260246000fd5b50919050565b808201808211156102e157634e487b7160e01b600052601160045260246000fd5b60008351611328818460208801610fc9565b83519083019061133c818360208801610fc9565b01949350505050565b601f82111561045c57600081815260208120601f850160051c8101602086101561136c5750805b601f850160051c820191505b81811015610b6357828155600101611378565b815167ffffffffffffffff8111156113a5576113a56110e2565b6113b9816113b384546112bb565b84611345565b602080601f8311600181146113ee57600084156113d65750858301515b600019600386901b1c1916600185901b178555610b63565b600085815260208120601f198616915b8281101561141d578886015182559484019460019091019084016113fe565b508582101561143b5787850151600019600388901b60f8161c191681555b5050505050600190811b01905550565b6001600160a01b038581168252841660208201526040810183905260806060820181905260009061147e90830184610fed565b9695505050505050565b60006020828403121561149a57600080fd5b8151610bda81610f9656fea2646970667358221220287bd44614d90afa0aad7042eda85d1167ddfd769c87ab3e4ea325fd43dda5ba64736f6c63430008140033",
  "linkReferences": {},
  "deployedLinkReferences": {}
}